{
  "contractName": "Token",
  "abi": [
    {
      "constant": true,
      "inputs": [],
      "name": "oneWeiToToken",
      "outputs": [
        {
          "name": "",
          "type": "uint256"
        }
      ],
      "payable": false,
      "stateMutability": "view",
      "type": "function",
      "signature": "0xc341d756"
    },
    {
      "inputs": [],
      "payable": false,
      "stateMutability": "nonpayable",
      "type": "constructor",
      "signature": "constructor"
    },
    {
      "payable": true,
      "stateMutability": "payable",
      "type": "fallback"
    },
    {
      "anonymous": false,
      "inputs": [
        {
          "indexed": false,
          "name": "from",
          "type": "address"
        },
        {
          "indexed": false,
          "name": "to",
          "type": "address"
        },
        {
          "indexed": false,
          "name": "amount",
          "type": "uint256"
        }
      ],
      "name": "Transfer",
      "type": "event",
      "signature": "0xddf252ad1be2c89b69c2b068fc378daa952ba7f163c4a11628f55a4df523b3ef"
    },
    {
      "constant": false,
      "inputs": [
        {
          "name": "to",
          "type": "address"
        },
        {
          "name": "amount",
          "type": "uint256"
        }
      ],
      "name": "transfer",
      "outputs": [
        {
          "name": "success",
          "type": "bool"
        }
      ],
      "payable": false,
      "stateMutability": "nonpayable",
      "type": "function",
      "signature": "0xa9059cbb"
    },
    {
      "constant": false,
      "inputs": [
        {
          "name": "tokens",
          "type": "uint256"
        }
      ],
      "name": "buyTokens",
      "outputs": [],
      "payable": true,
      "stateMutability": "payable",
      "type": "function",
      "signature": "0x3610724e"
    },
    {
      "constant": true,
      "inputs": [],
      "name": "balance",
      "outputs": [
        {
          "name": "balance",
          "type": "uint256"
        }
      ],
      "payable": false,
      "stateMutability": "view",
      "type": "function",
      "signature": "0xb69ef8a8"
    }
  ],
  "bytecode": "0x608060405234801561001057600080fd5b5061060a806100206000396000f3fe608060405260043610610062576000357c0100000000000000000000000000000000000000000000000000000000900463ffffffff1680633610724e14610064578063a9059cbb14610092578063b69ef8a814610105578063c341d75614610130575b005b6100906004803603602081101561007a57600080fd5b810190808035906020019092919050505061015b565b005b34801561009e57600080fd5b506100eb600480360360408110156100b557600080fd5b81019080803573ffffffffffffffffffffffffffffffffffffffff16906020019092919080359060200190929190505050610260565b604051808215151515815260200191505060405180910390f35b34801561011157600080fd5b5061011a610323565b6040518082815260200191505060405180910390f35b34801561013c57600080fd5b50610145610369565b6040518082815260200191505060405180910390f35b806000803373ffffffffffffffffffffffffffffffffffffffff1673ffffffffffffffffffffffffffffffffffffffff16815260200190815260200160002060008282540192505081905550806000803373ffffffffffffffffffffffffffffffffffffffff1673ffffffffffffffffffffffffffffffffffffffff168152602001908152602001600020541015151561025d576040517f08c379a000000000000000000000000000000000000000000000000000000000815260040180806020018281038252601b8152602001807f62616c616e6365735b2e2e5d206e6f74207570646174696e673f21000000000081525060200191505060405180910390fd5b50565b600061027a338484600061036e909392919063ffffffff16565b7fddf252ad1be2c89b69c2b068fc378daa952ba7f163c4a11628f55a4df523b3ef338484604051808473ffffffffffffffffffffffffffffffffffffffff1673ffffffffffffffffffffffffffffffffffffffff1681526020018373ffffffffffffffffffffffffffffffffffffffff1673ffffffffffffffffffffffffffffffffffffffff168152602001828152602001935050505060405180910390a16001905092915050565b60008060003373ffffffffffffffffffffffffffffffffffffffff1673ffffffffffffffffffffffffffffffffffffffff16815260200190815260200160002054905090565b600a81565b808460008573ffffffffffffffffffffffffffffffffffffffff1673ffffffffffffffffffffffffffffffffffffffff1681526020019081526020016000205410151515610424576040517f08c379a000000000000000000000000000000000000000000000000000000000815260040180806020018281038252601e8152602001807f6e6f7420656e6f7567682062616c616e636520746f207472616e73666572000081525060200191505060405180910390fd5b8360008373ffffffffffffffffffffffffffffffffffffffff1673ffffffffffffffffffffffffffffffffffffffff16815260200190815260200160002054818560008573ffffffffffffffffffffffffffffffffffffffff1673ffffffffffffffffffffffffffffffffffffffff168152602001908152602001600020540110151515610540576040517f08c379a00000000000000000000000000000000000000000000000000000000081526004018080602001828103825260238152602001807f62616c616e63652063616e6e6f7420626520616464656420746f20726563656981526020017f766572000000000000000000000000000000000000000000000000000000000081525060400191505060405180910390fd5b808460008573ffffffffffffffffffffffffffffffffffffffff1673ffffffffffffffffffffffffffffffffffffffff16815260200190815260200160002060008282540392505081905550808460008473ffffffffffffffffffffffffffffffffffffffff1673ffffffffffffffffffffffffffffffffffffffff168152602001908152602001600020600082825401925050819055505050505056fea165627a7a723058208e9d9eb19b59f980e6cfe61ebc4be78a08d3bb1749f322a036cbbce08a091f230029",
  "source": "pragma solidity >=0.4.22 <0.7.0;\n\nlibrary Balances {\n    function move(mapping(address => uint256) storage balances, address from, address to, uint amount) internal {\n        require(balances[from] >= amount, \"not enough balance to transfer\");\n        require(balances[to] + amount >= balances[to], \"balance cannot be added to receiver\");\n        balances[from] -= amount;\n        balances[to] += amount;\n    }\n}\n\ncontract Token {\n    mapping(address => uint256) balances;\n    using Balances for *;\n\n  //  address payable contractOwner;\n    uint constant public oneWeiToToken = 10;\n\n    event Transfer(address from, address to, uint amount);\n\n    constructor() public {\n   //     contractOwner = msg.sender;\n    }\n\n    function() external payable{}\n\n    function transfer(address to, uint amount) public returns (bool success) {\n        balances.move(msg.sender, to, amount);\n        emit Transfer(msg.sender, to, amount);\n        return true;\n    }\n\n    function buyTokens(uint256 tokens) public payable {\n       // contractOwner.transfer(msg.value);\n        balances[msg.sender] += tokens;\n        require(balances[msg.sender] >= tokens, \"balances[..] not updating?!\");\n    }\n\n    function balance() public view returns (uint256 balance) {\n        return balances[msg.sender];\n    }\n}",
  "sourcePath": "/home/merve/Desktop/git/solidity-web/examples/client-side/contracts/Token.sol",
  "compiler": {
    "name": "solc",
    "version": "0.5.0+commit.1d4f565a.Emscripten.clang"
  },
  "schemaVersion": "3.0.1",
  "updatedAt": "2020-02-02T21:23:50.963Z",
  "devdoc": {
    "methods": {}
  },
  "userdoc": {
    "methods": {}
  }
}